S0160000456E636F6465724C6962726172792E7372656379
S11300000C942A000C9448000C943C000C943C0082
S11300100C943C000C943C000C943C000C943C006C
S11300200C943C000C943C000C943C000C943C005C
S11300300C943C000C943C000C943C000C943C004C
S11300400C943C000C943C000C943C000C943C003C
S11300500C943C0011241FBECFE5D8E0DEBFCDBF19
S113006020E0A0E6B0E001C01D92A236B207E1F79D
S11300700E9470000C9483000C940000929A939A4E
S11300808BB780648BBF85B7816085BF78940895F2
S11300901F920F920FB60F9211248F939F93829900
S11300A005C080B388708093600013C09091600095
S11300B080B38870891769F0992331F080916100C9
S11300C08F5F8093610005C08091610081508093AF
S11300D061009F918F910F900FBE0F901F90189504
S11300E08FEF87BB0E943E0021E030E080916100E9
S11300F08770A90102C0440F551F8A95E2F7CA010F
S10D0100809588BBF3CFF894FFCF7D
S9030000FC
